{
  "_format": "hh-sol-artifact-1",
  "contractName": "MyToken721",
  "sourceName": "contracts/MyToken721.sol",
  "abi": [
    {
      "inputs": [],
      "stateMutability": "nonpayable",
      "type": "constructor"
    },
    {
      "anonymous": false,
      "inputs": [
        {
          "indexed": true,
          "internalType": "address",
          "name": "owner",
          "type": "address"
        },
        {
          "indexed": true,
          "internalType": "address",
          "name": "approved",
          "type": "address"
        },
        {
          "indexed": true,
          "internalType": "uint256",
          "name": "tokenId",
          "type": "uint256"
        }
      ],
      "name": "Approval",
      "type": "event"
    },
    {
      "anonymous": false,
      "inputs": [
        {
          "indexed": true,
          "internalType": "address",
          "name": "owner",
          "type": "address"
        },
        {
          "indexed": true,
          "internalType": "address",
          "name": "operator",
          "type": "address"
        },
        {
          "indexed": false,
          "internalType": "bool",
          "name": "approved",
          "type": "bool"
        }
      ],
      "name": "ApprovalForAll",
      "type": "event"
    },
    {
      "anonymous": false,
      "inputs": [
        {
          "indexed": true,
          "internalType": "address",
          "name": "previousOwner",
          "type": "address"
        },
        {
          "indexed": true,
          "internalType": "address",
          "name": "newOwner",
          "type": "address"
        }
      ],
      "name": "OwnershipTransferred",
      "type": "event"
    },
    {
      "anonymous": false,
      "inputs": [
        {
          "indexed": true,
          "internalType": "address",
          "name": "from",
          "type": "address"
        },
        {
          "indexed": true,
          "internalType": "address",
          "name": "to",
          "type": "address"
        },
        {
          "indexed": true,
          "internalType": "uint256",
          "name": "tokenId",
          "type": "uint256"
        }
      ],
      "name": "Transfer",
      "type": "event"
    },
    {
      "inputs": [
        {
          "internalType": "address",
          "name": "to",
          "type": "address"
        },
        {
          "internalType": "uint256",
          "name": "tokenId",
          "type": "uint256"
        }
      ],
      "name": "approve",
      "outputs": [],
      "stateMutability": "nonpayable",
      "type": "function"
    },
    {
      "inputs": [
        {
          "internalType": "address",
          "name": "owner",
          "type": "address"
        }
      ],
      "name": "balanceOf",
      "outputs": [
        {
          "internalType": "uint256",
          "name": "",
          "type": "uint256"
        }
      ],
      "stateMutability": "view",
      "type": "function"
    },
    {
      "inputs": [
        {
          "internalType": "uint256",
          "name": "tokenId",
          "type": "uint256"
        }
      ],
      "name": "getApproved",
      "outputs": [
        {
          "internalType": "address",
          "name": "",
          "type": "address"
        }
      ],
      "stateMutability": "view",
      "type": "function"
    },
    {
      "inputs": [
        {
          "internalType": "address",
          "name": "owner",
          "type": "address"
        },
        {
          "internalType": "address",
          "name": "operator",
          "type": "address"
        }
      ],
      "name": "isApprovedForAll",
      "outputs": [
        {
          "internalType": "bool",
          "name": "",
          "type": "bool"
        }
      ],
      "stateMutability": "view",
      "type": "function"
    },
    {
      "inputs": [],
      "name": "name",
      "outputs": [
        {
          "internalType": "string",
          "name": "",
          "type": "string"
        }
      ],
      "stateMutability": "view",
      "type": "function"
    },
    {
      "inputs": [],
      "name": "owner",
      "outputs": [
        {
          "internalType": "address",
          "name": "",
          "type": "address"
        }
      ],
      "stateMutability": "view",
      "type": "function"
    },
    {
      "inputs": [
        {
          "internalType": "uint256",
          "name": "tokenId",
          "type": "uint256"
        }
      ],
      "name": "ownerOf",
      "outputs": [
        {
          "internalType": "address",
          "name": "",
          "type": "address"
        }
      ],
      "stateMutability": "view",
      "type": "function"
    },
    {
      "inputs": [],
      "name": "renounceOwnership",
      "outputs": [],
      "stateMutability": "nonpayable",
      "type": "function"
    },
    {
      "inputs": [],
      "name": "safeMint",
      "outputs": [],
      "stateMutability": "nonpayable",
      "type": "function"
    },
    {
      "inputs": [
        {
          "internalType": "address",
          "name": "from",
          "type": "address"
        },
        {
          "internalType": "address",
          "name": "to",
          "type": "address"
        },
        {
          "internalType": "uint256",
          "name": "tokenId",
          "type": "uint256"
        }
      ],
      "name": "safeTransferFrom",
      "outputs": [],
      "stateMutability": "nonpayable",
      "type": "function"
    },
    {
      "inputs": [
        {
          "internalType": "address",
          "name": "from",
          "type": "address"
        },
        {
          "internalType": "address",
          "name": "to",
          "type": "address"
        },
        {
          "internalType": "uint256",
          "name": "tokenId",
          "type": "uint256"
        },
        {
          "internalType": "bytes",
          "name": "data",
          "type": "bytes"
        }
      ],
      "name": "safeTransferFrom",
      "outputs": [],
      "stateMutability": "nonpayable",
      "type": "function"
    },
    {
      "inputs": [
        {
          "internalType": "address",
          "name": "operator",
          "type": "address"
        },
        {
          "internalType": "bool",
          "name": "approved",
          "type": "bool"
        }
      ],
      "name": "setApprovalForAll",
      "outputs": [],
      "stateMutability": "nonpayable",
      "type": "function"
    },
    {
      "inputs": [
        {
          "internalType": "bytes4",
          "name": "interfaceId",
          "type": "bytes4"
        }
      ],
      "name": "supportsInterface",
      "outputs": [
        {
          "internalType": "bool",
          "name": "",
          "type": "bool"
        }
      ],
      "stateMutability": "view",
      "type": "function"
    },
    {
      "inputs": [],
      "name": "symbol",
      "outputs": [
        {
          "internalType": "string",
          "name": "",
          "type": "string"
        }
      ],
      "stateMutability": "view",
      "type": "function"
    },
    {
      "inputs": [
        {
          "internalType": "uint256",
          "name": "tokenId",
          "type": "uint256"
        }
      ],
      "name": "tokenURI",
      "outputs": [
        {
          "internalType": "string",
          "name": "",
          "type": "string"
        }
      ],
      "stateMutability": "view",
      "type": "function"
    },
    {
      "inputs": [
        {
          "internalType": "address",
          "name": "from",
          "type": "address"
        },
        {
          "internalType": "address",
          "name": "to",
          "type": "address"
        },
        {
          "internalType": "uint256",
          "name": "tokenId",
          "type": "uint256"
        }
      ],
      "name": "transferFrom",
      "outputs": [],
      "stateMutability": "nonpayable",
      "type": "function"
    },
    {
      "inputs": [
        {
          "internalType": "address",
          "name": "newOwner",
          "type": "address"
        }
      ],
      "name": "transferOwnership",
      "outputs": [],
      "stateMutability": "nonpayable",
      "type": "function"
    }
  ],
  "bytecode": "0x60806040523480156200001157600080fd5b50604080518082018252600a81527f4d79546f6b656e3732310000000000000000000000000000000000000000000060208083019182528351808501909452600684527f4d544b37323100000000000000000000000000000000000000000000000000009084015281519192916200008c916000916200011b565b508051620000a29060019060208401906200011b565b505050620000bf620000b9620000c560201b60201c565b620000c9565b62000217565b3390565b600680546001600160a01b038381166001600160a01b0319831681179093556040519116919082907f8be0079c531659141344cd1fd0a4f28419497f9722a3daafe3b4186f6b6457e090600090a35050565b8280546200012990620001c1565b90600052602060002090601f0160209004810192826200014d576000855562000198565b82601f106200016857805160ff191683800117855562000198565b8280016001018555821562000198579182015b82811115620001985782518255916020019190600101906200017b565b50620001a6929150620001aa565b5090565b5b80821115620001a65760008155600101620001ab565b600181811c90821680620001d657607f821691505b6020821081141562000211577f4e487b7100000000000000000000000000000000000000000000000000000000600052602260045260246000fd5b50919050565b6112e080620002276000396000f3fe608060405234801561001057600080fd5b506004361061010b5760003560e01c806370a08231116100a2578063a22cb46511610071578063a22cb46514610210578063b88d4fde14610223578063c87b56dd14610236578063e985e9c514610249578063f2fde38b1461028557600080fd5b806370a08231146101ce578063715018a6146101ef5780638da5cb5b146101f757806395d89b411461020857600080fd5b806323b872dd116100de57806323b872dd1461018d57806342842e0e146101a05780636352211e146101b35780636871ee40146101c657600080fd5b806301ffc9a71461011057806306fdde0314610138578063081812fc1461014d578063095ea7b314610178575b600080fd5b61012361011e366004610e5a565b610298565b60405190151581526020015b60405180910390f35b6101406102ea565b60405161012f9190610ecb565b61016061015b366004610ede565b61037c565b6040516001600160a01b03909116815260200161012f565b61018b610186366004610f13565b6103a3565b005b61018b61019b366004610f3d565b6104be565b61018b6101ae366004610f3d565b6104ef565b6101606101c1366004610ede565b61050a565b61018b61056a565b6101e16101dc366004610f79565b61059a565b60405190815260200161012f565b61018b610620565b6006546001600160a01b0316610160565b610140610634565b61018b61021e366004610f94565b610643565b61018b610231366004610fe6565b610652565b610140610244366004610ede565b61068a565b6101236102573660046110c2565b6001600160a01b03918216600090815260056020908152604080832093909416825291909152205460ff1690565b61018b610293366004610f79565b6106ab565b60006001600160e01b031982166380ac58cd60e01b14806102c957506001600160e01b03198216635b5e139f60e01b145b806102e457506301ffc9a760e01b6001600160e01b03198316145b92915050565b6060600080546102f9906110f5565b80601f0160208091040260200160405190810160405280929190818152602001828054610325906110f5565b80156103725780601f1061034757610100808354040283529160200191610372565b820191906000526020600020905b81548152906001019060200180831161035557829003601f168201915b5050505050905090565b600061038782610721565b506000908152600460205260409020546001600160a01b031690565b60006103ae8261050a565b9050806001600160a01b0316836001600160a01b031614156104215760405162461bcd60e51b815260206004820152602160248201527f4552433732313a20617070726f76616c20746f2063757272656e74206f776e656044820152603960f91b60648201526084015b60405180910390fd5b336001600160a01b038216148061043d575061043d8133610257565b6104af5760405162461bcd60e51b815260206004820152603e60248201527f4552433732313a20617070726f76652063616c6c6572206973206e6f7420746f60448201527f6b656e206f776e6572206e6f7220617070726f76656420666f7220616c6c00006064820152608401610418565b6104b98383610780565b505050565b6104c833826107ee565b6104e45760405162461bcd60e51b815260040161041890611130565b6104b983838361086d565b6104b983838360405180602001604052806000815250610652565b6000818152600260205260408120546001600160a01b0316806102e45760405162461bcd60e51b8152602060048201526018602482015277115490cdcc8c4e881a5b9d985b1a59081d1bdad95b88125160421b6044820152606401610418565b610572610a09565b600061057d60075490565b905061058d600780546001019055565b6105973382610a63565b50565b60006001600160a01b0382166106045760405162461bcd60e51b815260206004820152602960248201527f4552433732313a2061646472657373207a65726f206973206e6f7420612076616044820152683634b21037bbb732b960b91b6064820152608401610418565b506001600160a01b031660009081526003602052604090205490565b610628610a09565b6106326000610a7d565b565b6060600180546102f9906110f5565b61064e338383610acf565b5050565b61065c33836107ee565b6106785760405162461bcd60e51b815260040161041890611130565b61068484848484610b9e565b50505050565b60606040518060600160405280603b8152602001611270603b913992915050565b6106b3610a09565b6001600160a01b0381166107185760405162461bcd60e51b815260206004820152602660248201527f4f776e61626c653a206e6577206f776e657220697320746865207a65726f206160448201526564647265737360d01b6064820152608401610418565b61059781610a7d565b6000818152600260205260409020546001600160a01b03166105975760405162461bcd60e51b8152602060048201526018602482015277115490cdcc8c4e881a5b9d985b1a59081d1bdad95b88125160421b6044820152606401610418565b600081815260046020526040902080546001600160a01b0319166001600160a01b03841690811790915581906107b58261050a565b6001600160a01b03167f8c5be1e5ebec7d5bd14f71427d1e84f3dd0314c0f7b2291e5b200ac8c7c3b92560405160405180910390a45050565b6000806107fa8361050a565b9050806001600160a01b0316846001600160a01b0316148061084157506001600160a01b0380821660009081526005602090815260408083209388168352929052205460ff165b806108655750836001600160a01b031661085a8461037c565b6001600160a01b0316145b949350505050565b826001600160a01b03166108808261050a565b6001600160a01b0316146108e45760405162461bcd60e51b815260206004820152602560248201527f4552433732313a207472616e736665722066726f6d20696e636f72726563742060448201526437bbb732b960d91b6064820152608401610418565b6001600160a01b0382166109465760405162461bcd60e51b8152602060048201526024808201527f4552433732313a207472616e7366657220746f20746865207a65726f206164646044820152637265737360e01b6064820152608401610418565b610951600082610780565b6001600160a01b038316600090815260036020526040812080546001929061097a908490611194565b90915550506001600160a01b03821660009081526003602052604081208054600192906109a89084906111ab565b909155505060008181526002602052604080822080546001600160a01b0319166001600160a01b0386811691821790925591518493918716917fddf252ad1be2c89b69c2b068fc378daa952ba7f163c4a11628f55a4df523b3ef91a4505050565b6006546001600160a01b031633146106325760405162461bcd60e51b815260206004820181905260248201527f4f776e61626c653a2063616c6c6572206973206e6f7420746865206f776e65726044820152606401610418565b61064e828260405180602001604052806000815250610bd1565b600680546001600160a01b038381166001600160a01b0319831681179093556040519116919082907f8be0079c531659141344cd1fd0a4f28419497f9722a3daafe3b4186f6b6457e090600090a35050565b816001600160a01b0316836001600160a01b03161415610b315760405162461bcd60e51b815260206004820152601960248201527f4552433732313a20617070726f766520746f2063616c6c6572000000000000006044820152606401610418565b6001600160a01b03838116600081815260056020908152604080832094871680845294825291829020805460ff191686151590811790915591519182527f17307eab39ab6107e8899845ad3d59bd9653f200f220920489ca2b5937696c31910160405180910390a3505050565b610ba984848461086d565b610bb584848484610c04565b6106845760405162461bcd60e51b8152600401610418906111c3565b610bdb8383610d02565b610be86000848484610c04565b6104b95760405162461bcd60e51b8152600401610418906111c3565b60006001600160a01b0384163b15610cf757604051630a85bd0160e11b81526001600160a01b0385169063150b7a0290610c48903390899088908890600401611215565b6020604051808303816000875af1925050508015610c83575060408051601f3d908101601f19168201909252610c8091810190611252565b60015b610cdd573d808015610cb1576040519150601f19603f3d011682016040523d82523d6000602084013e610cb6565b606091505b508051610cd55760405162461bcd60e51b8152600401610418906111c3565b805181602001fd5b6001600160e01b031916630a85bd0160e11b149050610865565b506001949350505050565b6001600160a01b038216610d585760405162461bcd60e51b815260206004820181905260248201527f4552433732313a206d696e7420746f20746865207a65726f20616464726573736044820152606401610418565b6000818152600260205260409020546001600160a01b031615610dbd5760405162461bcd60e51b815260206004820152601c60248201527f4552433732313a20746f6b656e20616c7265616479206d696e746564000000006044820152606401610418565b6001600160a01b0382166000908152600360205260408120805460019290610de69084906111ab565b909155505060008181526002602052604080822080546001600160a01b0319166001600160a01b03861690811790915590518392907fddf252ad1be2c89b69c2b068fc378daa952ba7f163c4a11628f55a4df523b3ef908290a45050565b6001600160e01b03198116811461059757600080fd5b600060208284031215610e6c57600080fd5b8135610e7781610e44565b9392505050565b6000815180845260005b81811015610ea457602081850181015186830182015201610e88565b81811115610eb6576000602083870101525b50601f01601f19169290920160200192915050565b602081526000610e776020830184610e7e565b600060208284031215610ef057600080fd5b5035919050565b80356001600160a01b0381168114610f0e57600080fd5b919050565b60008060408385031215610f2657600080fd5b610f2f83610ef7565b946020939093013593505050565b600080600060608486031215610f5257600080fd5b610f5b84610ef7565b9250610f6960208501610ef7565b9150604084013590509250925092565b600060208284031215610f8b57600080fd5b610e7782610ef7565b60008060408385031215610fa757600080fd5b610fb083610ef7565b915060208301358015158114610fc557600080fd5b809150509250929050565b634e487b7160e01b600052604160045260246000fd5b60008060008060808587031215610ffc57600080fd5b61100585610ef7565b935061101360208601610ef7565b925060408501359150606085013567ffffffffffffffff8082111561103757600080fd5b818701915087601f83011261104b57600080fd5b81358181111561105d5761105d610fd0565b604051601f8201601f19908116603f0116810190838211818310171561108557611085610fd0565b816040528281528a602084870101111561109e57600080fd5b82602086016020830137600060208483010152809550505050505092959194509250565b600080604083850312156110d557600080fd5b6110de83610ef7565b91506110ec60208401610ef7565b90509250929050565b600181811c9082168061110957607f821691505b6020821081141561112a57634e487b7160e01b600052602260045260246000fd5b50919050565b6020808252602e908201527f4552433732313a2063616c6c6572206973206e6f7420746f6b656e206f776e6560408201526d1c881b9bdc88185c1c1c9bdd995960921b606082015260800190565b634e487b7160e01b600052601160045260246000fd5b6000828210156111a6576111a661117e565b500390565b600082198211156111be576111be61117e565b500190565b60208082526032908201527f4552433732313a207472616e7366657220746f206e6f6e20455243373231526560408201527131b2b4bb32b91034b6b83632b6b2b73a32b960711b606082015260800190565b6001600160a01b038581168252841660208201526040810183905260806060820181905260009061124890830184610e7e565b9695505050505050565b60006020828403121561126457600080fd5b8151610e7781610e4456fe68747470733a2f2f706f716f706f746573742e73332e75732d776573742d322e616d617a6f6e6177732e636f6d2f72656e74726f70792e6a736f6ea264697066735822122024f709669a312d6a1e86c3b4e83dfbb99f8a09acd9c0e62da00522301f56d2e164736f6c634300080a0033",
  "linkReferences": {},
  "deployedLinkReferences": {}
}