{
  "_format": "hh-sol-artifact-1",
  "contractName": "RentERC721",
  "sourceName": "contracts/RentERC721.sol",
  "abi": [
    {
      "inputs": [],
      "stateMutability": "nonpayable",
      "type": "constructor"
    },
    {
      "anonymous": false,
      "inputs": [
        {
          "indexed": false,
          "internalType": "address",
          "name": "lender_address",
          "type": "address"
        },
        {
          "indexed": false,
          "internalType": "address",
          "name": "collection_address",
          "type": "address"
        },
        {
          "indexed": false,
          "internalType": "uint256",
          "name": "token_id",
          "type": "uint256"
        }
      ],
      "name": "Collateralwithdraw",
      "type": "event"
    },
    {
      "anonymous": false,
      "inputs": [
        {
          "indexed": false,
          "internalType": "address",
          "name": "from_address",
          "type": "address"
        },
        {
          "indexed": false,
          "internalType": "address",
          "name": "collection_address",
          "type": "address"
        },
        {
          "indexed": false,
          "internalType": "uint256",
          "name": "token_id",
          "type": "uint256"
        }
      ],
      "name": "NFTkicked",
      "type": "event"
    },
    {
      "anonymous": false,
      "inputs": [
        {
          "indexed": false,
          "internalType": "address",
          "name": "holder_address",
          "type": "address"
        },
        {
          "indexed": false,
          "internalType": "address",
          "name": "collection_address",
          "type": "address"
        },
        {
          "indexed": false,
          "internalType": "uint256",
          "name": "token_id",
          "type": "uint256"
        },
        {
          "indexed": false,
          "internalType": "address",
          "name": "collateral_token",
          "type": "address"
        },
        {
          "indexed": false,
          "internalType": "uint256",
          "name": "collateral_amount",
          "type": "uint256"
        },
        {
          "indexed": false,
          "internalType": "uint256",
          "name": "max_rent_duration",
          "type": "uint256"
        },
        {
          "indexed": false,
          "internalType": "uint256",
          "name": "rent_fee_per_block",
          "type": "uint256"
        }
      ],
      "name": "NFTlist",
      "type": "event"
    },
    {
      "anonymous": false,
      "inputs": [
        {
          "indexed": false,
          "internalType": "address",
          "name": "collection_address",
          "type": "address"
        },
        {
          "indexed": false,
          "internalType": "uint256",
          "name": "token_id",
          "type": "uint256"
        }
      ],
      "name": "NFTlistcancel",
      "type": "event"
    },
    {
      "anonymous": false,
      "inputs": [
        {
          "indexed": false,
          "internalType": "address",
          "name": "collection_address",
          "type": "address"
        },
        {
          "indexed": false,
          "internalType": "uint256",
          "name": "token_id",
          "type": "uint256"
        },
        {
          "indexed": false,
          "internalType": "enum RentERC721.PARAMETER[]",
          "name": "parameter",
          "type": "uint8[]"
        },
        {
          "indexed": false,
          "internalType": "uint256[]",
          "name": "input",
          "type": "uint256[]"
        }
      ],
      "name": "NFTlistmodified",
      "type": "event"
    },
    {
      "anonymous": false,
      "inputs": [
        {
          "indexed": false,
          "internalType": "address",
          "name": "renter_address",
          "type": "address"
        },
        {
          "indexed": false,
          "internalType": "address",
          "name": "collection_address",
          "type": "address"
        },
        {
          "indexed": false,
          "internalType": "uint256",
          "name": "token_id",
          "type": "uint256"
        },
        {
          "indexed": false,
          "internalType": "uint256",
          "name": "rented_block",
          "type": "uint256"
        },
        {
          "indexed": false,
          "internalType": "uint256",
          "name": "rent_duration",
          "type": "uint256"
        },
        {
          "indexed": false,
          "internalType": "uint256",
          "name": "rent_fee",
          "type": "uint256"
        }
      ],
      "name": "NFTrented",
      "type": "event"
    },
    {
      "anonymous": false,
      "inputs": [
        {
          "indexed": false,
          "internalType": "address",
          "name": "renter_address",
          "type": "address"
        },
        {
          "indexed": false,
          "internalType": "address",
          "name": "collection_address",
          "type": "address"
        },
        {
          "indexed": false,
          "internalType": "uint256",
          "name": "token_id",
          "type": "uint256"
        }
      ],
      "name": "NFTreturned",
      "type": "event"
    },
    {
      "anonymous": false,
      "inputs": [
        {
          "indexed": true,
          "internalType": "address",
          "name": "previousOwner",
          "type": "address"
        },
        {
          "indexed": true,
          "internalType": "address",
          "name": "newOwner",
          "type": "address"
        }
      ],
      "name": "OwnershipTransferred",
      "type": "event"
    },
    {
      "inputs": [
        {
          "internalType": "address",
          "name": "collection_address",
          "type": "address"
        },
        {
          "internalType": "uint256",
          "name": "token_id",
          "type": "uint256"
        }
      ],
      "name": "cancellist",
      "outputs": [],
      "stateMutability": "nonpayable",
      "type": "function"
    },
    {
      "inputs": [
        {
          "internalType": "address",
          "name": "collection_address",
          "type": "address"
        },
        {
          "internalType": "uint256",
          "name": "token_id",
          "type": "uint256"
        }
      ],
      "name": "emergencycancel",
      "outputs": [],
      "stateMutability": "nonpayable",
      "type": "function"
    },
    {
      "inputs": [],
      "name": "execution_delay",
      "outputs": [
        {
          "internalType": "uint256",
          "name": "",
          "type": "uint256"
        }
      ],
      "stateMutability": "view",
      "type": "function"
    },
    {
      "inputs": [],
      "name": "fee_collector",
      "outputs": [
        {
          "internalType": "address",
          "name": "",
          "type": "address"
        }
      ],
      "stateMutability": "view",
      "type": "function"
    },
    {
      "inputs": [],
      "name": "fee_denominator",
      "outputs": [
        {
          "internalType": "uint256",
          "name": "",
          "type": "uint256"
        }
      ],
      "stateMutability": "view",
      "type": "function"
    },
    {
      "inputs": [
        {
          "internalType": "address",
          "name": "collection_address",
          "type": "address"
        },
        {
          "internalType": "uint256",
          "name": "token_id",
          "type": "uint256"
        }
      ],
      "name": "kick",
      "outputs": [],
      "stateMutability": "nonpayable",
      "type": "function"
    },
    {
      "inputs": [],
      "name": "kick_incentive",
      "outputs": [
        {
          "internalType": "uint256",
          "name": "",
          "type": "uint256"
        }
      ],
      "stateMutability": "view",
      "type": "function"
    },
    {
      "inputs": [
        {
          "internalType": "address",
          "name": "collection_address",
          "type": "address"
        },
        {
          "internalType": "address",
          "name": "_collateral_token",
          "type": "address"
        },
        {
          "internalType": "uint256",
          "name": "token_id",
          "type": "uint256"
        },
        {
          "internalType": "uint256",
          "name": "_maxrent_duration",
          "type": "uint256"
        },
        {
          "internalType": "uint256",
          "name": "_collateral_amount",
          "type": "uint256"
        },
        {
          "internalType": "uint256",
          "name": "_rent_fee_per_block",
          "type": "uint256"
        }
      ],
      "name": "listNFT",
      "outputs": [],
      "stateMutability": "nonpayable",
      "type": "function"
    },
    {
      "inputs": [
        {
          "internalType": "address",
          "name": "collection_address",
          "type": "address"
        },
        {
          "internalType": "uint256",
          "name": "token_id",
          "type": "uint256"
        },
        {
          "internalType": "enum RentERC721.PARAMETER[]",
          "name": "_parameter",
          "type": "uint8[]"
        },
        {
          "internalType": "uint256[]",
          "name": "_input",
          "type": "uint256[]"
        }
      ],
      "name": "modifylist",
      "outputs": [],
      "stateMutability": "nonpayable",
      "type": "function"
    },
    {
      "inputs": [],
      "name": "nft_id",
      "outputs": [
        {
          "internalType": "uint256",
          "name": "",
          "type": "uint256"
        }
      ],
      "stateMutability": "view",
      "type": "function"
    },
    {
      "inputs": [
        {
          "internalType": "address",
          "name": "",
          "type": "address"
        },
        {
          "internalType": "uint256",
          "name": "",
          "type": "uint256"
        }
      ],
      "name": "nftinfo",
      "outputs": [
        {
          "components": [
            {
              "internalType": "address",
              "name": "lender_address",
              "type": "address"
            },
            {
              "internalType": "address",
              "name": "collateral_token",
              "type": "address"
            },
            {
              "internalType": "uint256",
              "name": "maxrent_duration",
              "type": "uint256"
            },
            {
              "internalType": "uint256",
              "name": "collateral_amount",
              "type": "uint256"
            },
            {
              "internalType": "uint256",
              "name": "rent_fee_per_block",
              "type": "uint256"
            }
          ],
          "internalType": "struct RentERC721.Lendinfo",
          "name": "lendinfo",
          "type": "tuple"
        },
        {
          "components": [
            {
              "internalType": "address",
              "name": "renter_address",
              "type": "address"
            },
            {
              "internalType": "uint256",
              "name": "rent_duration",
              "type": "uint256"
            },
            {
              "internalType": "uint256",
              "name": "rented_block",
              "type": "uint256"
            },
            {
              "internalType": "uint256",
              "name": "rentfee_amount",
              "type": "uint256"
            }
          ],
          "internalType": "struct RentERC721.Rentinfo",
          "name": "rentinfo",
          "type": "tuple"
        }
      ],
      "stateMutability": "view",
      "type": "function"
    },
    {
      "inputs": [
        {
          "internalType": "address",
          "name": "",
          "type": "address"
        },
        {
          "internalType": "address",
          "name": "",
          "type": "address"
        },
        {
          "internalType": "uint256",
          "name": "",
          "type": "uint256"
        },
        {
          "internalType": "bytes",
          "name": "",
          "type": "bytes"
        }
      ],
      "name": "onERC721Received",
      "outputs": [
        {
          "internalType": "bytes4",
          "name": "",
          "type": "bytes4"
        }
      ],
      "stateMutability": "nonpayable",
      "type": "function"
    },
    {
      "inputs": [],
      "name": "owner",
      "outputs": [
        {
          "internalType": "address",
          "name": "",
          "type": "address"
        }
      ],
      "stateMutability": "view",
      "type": "function"
    },
    {
      "inputs": [],
      "name": "paused",
      "outputs": [
        {
          "internalType": "bool",
          "name": "",
          "type": "bool"
        }
      ],
      "stateMutability": "view",
      "type": "function"
    },
    {
      "inputs": [],
      "name": "platform_fee",
      "outputs": [
        {
          "internalType": "uint256",
          "name": "",
          "type": "uint256"
        }
      ],
      "stateMutability": "view",
      "type": "function"
    },
    {
      "inputs": [],
      "name": "renounceOwnership",
      "outputs": [],
      "stateMutability": "nonpayable",
      "type": "function"
    },
    {
      "inputs": [
        {
          "internalType": "address",
          "name": "collection_address",
          "type": "address"
        },
        {
          "internalType": "uint256",
          "name": "token_id",
          "type": "uint256"
        },
        {
          "internalType": "uint256",
          "name": "_rent_duration",
          "type": "uint256"
        }
      ],
      "name": "rent",
      "outputs": [],
      "stateMutability": "nonpayable",
      "type": "function"
    },
    {
      "inputs": [
        {
          "internalType": "address",
          "name": "collection_address",
          "type": "address"
        },
        {
          "internalType": "uint256",
          "name": "token_id",
          "type": "uint256"
        }
      ],
      "name": "returnNFT",
      "outputs": [],
      "stateMutability": "nonpayable",
      "type": "function"
    },
    {
      "inputs": [
        {
          "internalType": "uint256",
          "name": "_execution_delay",
          "type": "uint256"
        }
      ],
      "name": "set_execution_delay",
      "outputs": [],
      "stateMutability": "nonpayable",
      "type": "function"
    },
    {
      "inputs": [
        {
          "internalType": "address",
          "name": "_fee_collector",
          "type": "address"
        }
      ],
      "name": "set_fee_colletcor",
      "outputs": [],
      "stateMutability": "nonpayable",
      "type": "function"
    },
    {
      "inputs": [
        {
          "internalType": "uint256",
          "name": "_kick_incentive",
          "type": "uint256"
        }
      ],
      "name": "set_kick_incentive",
      "outputs": [],
      "stateMutability": "nonpayable",
      "type": "function"
    },
    {
      "inputs": [
        {
          "internalType": "uint256",
          "name": "_platform_fee",
          "type": "uint256"
        }
      ],
      "name": "set_platform_fee",
      "outputs": [],
      "stateMutability": "nonpayable",
      "type": "function"
    },
    {
      "inputs": [],
      "name": "stopforupgrade",
      "outputs": [
        {
          "internalType": "bool",
          "name": "",
          "type": "bool"
        }
      ],
      "stateMutability": "view",
      "type": "function"
    },
    {
      "inputs": [],
      "name": "togglepaused",
      "outputs": [],
      "stateMutability": "nonpayable",
      "type": "function"
    },
    {
      "inputs": [],
      "name": "togglesstopforupgrade",
      "outputs": [],
      "stateMutability": "nonpayable",
      "type": "function"
    },
    {
      "inputs": [
        {
          "internalType": "address",
          "name": "newOwner",
          "type": "address"
        }
      ],
      "name": "transferOwnership",
      "outputs": [],
      "stateMutability": "nonpayable",
      "type": "function"
    },
    {
      "inputs": [
        {
          "internalType": "address",
          "name": "collection_address",
          "type": "address"
        },
        {
          "internalType": "uint256",
          "name": "token_id",
          "type": "uint256"
        }
      ],
      "name": "withdrawcollateral",
      "outputs": [],
      "stateMutability": "nonpayable",
      "type": "function"
    }
  ],
  "bytecode": "0x608060405261271060038190556004556202a30060055560006006556007805461ffff1916905534801561003257600080fd5b5061003c33610053565b600280546001600160a01b031916331790556100a3565b600080546001600160a01b038381166001600160a01b0319831681178455604051919092169283917f8be0079c531659141344cd1fd0a4f28419497f9722a3daafe3b4186f6b6457e09190a35050565b612588806100b26000396000f3fe608060405234801561001057600080fd5b50600436106101a95760003560e01c80638da5cb5b116100f9578063e1b4a08411610097578063f2fde38b11610071578063f2fde38b14610463578063f5a5453614610476578063f5e8fa2314610489578063faefe1311461049c57600080fd5b8063e1b4a08414610434578063ea54396e14610447578063f2167c411461045057600080fd5b8063c955599d116100d3578063c955599d146103fc578063ccb568ec1461040e578063cfb551a414610421578063dc9d75b01461042a57600080fd5b80638da5cb5b146102be57806397d51956146102e3578063a6a15645146102eb57600080fd5b8063305bbc63116101665780634dc32a18116101405780634dc32a18146102735780635c975abb14610286578063715018a6146102a357806387e28a30146102ab57600080fd5b8063305bbc6314610244578063434b27c01461024d5780634981f2c51461026057600080fd5b8063014f09d3146101ae5780630203d8fb146101b85780630b17e828146101cb578063140b0254146101de578063150b7a02146101f157806329e6f5031461022d575b600080fd5b6101b66104af565b005b6101b66101c63660046120d5565b6104d4565b6101b66101d9366004611f77565b6108fb565b6101b66101ec366004612243565b610925565b61020f6101ff366004611fb8565b630a85bd0160e11b949350505050565b6040516001600160e01b031990911681526020015b60405180910390f35b61023660055481565b604051908152602001610224565b61023660065481565b6101b661025b366004612101565b610932565b6101b661026e366004612243565b610bae565b6101b66102813660046121ec565b610bbb565b6007546102939060ff1681565b6040519015158152602001610224565b6101b6610fb0565b6101b66102b936600461207c565b610fc4565b6000546001600160a01b03165b6040516001600160a01b039091168152602001610224565b6101b6611290565b6103916102f93660046120d5565b6001602081815260009384526040808520825292845292829020825160a08101845281546001600160a01b0390811682529282015483168186015260028201548185015260038201546060808301919091526004830154608080840191909152855190810186526005840154909416845260068301549584019590955260078201549383019390935260080154928101929092529082565b6040805183516001600160a01b03908116825260208086015182168184015285840151838501526060808701518185015260809687015196840196909652845190911660a083015283015160c08201529082015160e082015291015161010082015261012001610224565b60075461029390610100900460ff1681565b6101b661041c3660046120d5565b6112ac565b61023660035481565b610236620f424081565b6101b66104423660046120d5565b611729565b61023660045481565b6101b661045e3660046120d5565b611abb565b6101b6610471366004611f77565b611c78565b6101b66104843660046120d5565b611cf1565b6002546102cb906001600160a01b031681565b6101b66104aa366004612243565b611e4e565b6104b7611e5b565b6007805461ff001981166101009182900460ff1615909102179055565b60075460ff16156105005760405162461bcd60e51b81526004016104f7906123ba565b60405180910390fd5b6001600160a01b038083166000908152600160208181526040808420868552825292839020835160e081018552815486168186019081529382015486166060808301919091526002830154608080840191909152600384015460a0840152600484015460c084015294825285519485018652600583015487168552600683015485850152600783015495850195909552600890910154938301939093528201819052519091166105c25760405162461bcd60e51b81526004016104f7906123e1565b6005548160200151602001516105d8919061245a565b6020820151604001516105eb90436124b3565b1161062e5760405162461bcd60e51b81526020600482015260136024820152722cb7ba9031b0b713ba1035b4b1b5903737bb9760691b60448201526064016104f7565b6000620f424060035483602001516060015161064a9190612494565b6106549190612472565b90506000620f42406004548460200151606001516106729190612494565b61067c9190612472565b90506000818385602001516060015186600001516060015161069e919061245a565b6106a891906124b3565b6106b291906124b3565b6001600160a01b0380881660009081526001602081815260408084208b8552825280842080546001600160a01b031990811682559381018054851690556002810185905560038101859055600480820186905560058201805490951690945560068101859055600781018590556008019390935588510151915163a9059cbb60e01b815293945091169163a9059cbb916107509133918791016122bb565b602060405180830381600087803b15801561076a57600080fd5b505af115801561077e573d6000803e3d6000fd5b505050506040513d601f19601f820116820180604052508101906107a29190612221565b5083516020810151905160405163a9059cbb60e01b81526001600160a01b039092169163a9059cbb916107d99185906004016122bb565b602060405180830381600087803b1580156107f357600080fd5b505af1158015610807573d6000803e3d6000fd5b505050506040513d601f19601f8201168201806040525081019061082b9190612221565b5083516020015160025460405163a9059cbb60e01b81526001600160a01b039283169263a9059cbb926108659291169087906004016122bb565b602060405180830381600087803b15801561087f57600080fd5b505af1158015610893573d6000803e3d6000fd5b505050506040513d601f19601f820116820180604052508101906108b79190612221565b507f7ea929d9e4d5d36ffead74a15eca76548d1f450a7b3de39a5bd34e8ee8a96ba73387876040516108eb93929190612297565b60405180910390a1505050505050565b610903611e5b565b600280546001600160a01b0319166001600160a01b0392909216919091179055565b61092d611e5b565b600455565b6001600160a01b0384811660009081526001602090815260408083208784529091529020548591859116331461099f5760405162461bcd60e51b81526020600482015260126024820152714f6e6c79206c69737465722063616e20646f60701b60448201526064016104f7565b60075460ff16156109c25760405162461bcd60e51b81526004016104f7906123ba565b600754610100900460ff16156109ea5760405162461bcd60e51b81526004016104f790612390565b60005b8451811015610b78576000858281518110610a0a57610a0a612511565b60200260200101516002811115610a2357610a236124fb565b1415610a7257838181518110610a3b57610a3b612511565b6020908102919091018101516001600160a01b03891660009081526001835260408082208a83529093529190912060020155610b66565b6001858281518110610a8657610a86612511565b60200260200101516002811115610a9f57610a9f6124fb565b1415610aee57838181518110610ab757610ab7612511565b6020908102919091018101516001600160a01b03891660009081526001835260408082208a83529093529190912060030155610b66565b6002858281518110610b0257610b02612511565b60200260200101516002811115610b1b57610b1b6124fb565b1415610b6657838181518110610b3357610b33612511565b6020908102919091018101516001600160a01b03891660009081526001835260408082208a835290935291909120600401555b80610b70816124ca565b9150506109ed565b507fecde98bb5c64588619970f9b3eb7d4adf853d3add844e201ccbee97623337ac0868686866040516108eb94939291906122d4565b610bb6611e5b565b600355565b60075460ff1615610bde5760405162461bcd60e51b81526004016104f7906123ba565b600754610100900460ff1615610c065760405162461bcd60e51b81526004016104f790612390565b6001600160a01b038084166000908152600160208181526040808420878552825292839020835160e081018552815486168186019081529382015486166060808301919091526002830154608080840191909152600384015460a0840152600484015460c08401529482528551948501865260058301548716855260068301548585015260078301549585019590955260089091015493830193909352820152805151909116610ce55760405162461bcd60e51b815260206004820152600a602482015269139bdd081b1a5cdd195960b21b60448201526064016104f7565b60008211610d3f5760405162461bcd60e51b815260206004820152602160248201527f596f752073686f756c642072656e74206d6f7265207468616e203120626c6f636044820152606b60f81b60648201526084016104f7565b602080820151015115610d855760405162461bcd60e51b815260206004820152600e60248201526d105b1c9958591e481c995b9d195960921b60448201526064016104f7565b805160400151821115610dd25760405162461bcd60e51b81526020600482015260156024820152743a37b7903637b7339027232a10323ab930ba34b7b760591b60448201526064016104f7565b805160800151600090610de6908490612494565b9050600081836000015160600151610dfe919061245a565b6040805160808101825233808252602080830189815243848601908152606085018981526001600160a01b038e81166000908152600186528881208f8252865288902096516005880180546001600160a01b0319169183169190911790559251600687015590516007860155516008909401939093558751015192516323b872dd60e01b81529394509116916323b872dd91610ea09130908690600401612297565b602060405180830381600087803b158015610eba57600080fd5b505af1158015610ece573d6000803e3d6000fd5b505050506040513d601f19601f82011682018060405250810190610ef29190612221565b50604051632142170760e11b81526001600160a01b038716906342842e0e90610f2390309033908a90600401612297565b600060405180830381600087803b158015610f3d57600080fd5b505af1158015610f51573d6000803e3d6000fd5b5050604080513381526001600160a01b038a1660208201529081018890524360608201526080810187905260a081018590527fd7f2098c778fecbbce6427db4d937f22035ca1ffe84e4c201fa081a4a2ca7edd925060c00190506108eb565b610fb8611e5b565b610fc26000611eb5565b565b60075460ff1615610fe75760405162461bcd60e51b81526004016104f7906123ba565b600754610100900460ff161561100f5760405162461bcd60e51b81526004016104f790612390565b6040516331a9108f60e11b8152600481018590526001600160a01b03871690636352211e9060240160206040518083038186803b15801561104f57600080fd5b505afa158015611063573d6000803e3d6000fd5b505050506040513d601f19601f820116820180604052508101906110879190611f9b565b6001600160a01b0316336001600160a01b0316146110df5760405162461bcd60e51b81526020600482015260156024820152742cb7ba9030b932903737ba103a34329037bbb732b960591b60448201526064016104f7565b6001600160a01b0386166000908152600160209081526040808320878452909152902060070154156111235760405162461bcd60e51b81526004016104f790612362565b6040805160a0810182523381526001600160a01b03878116602080840191825283850188815260608501888152608086018881528d8616600090815260018086528982208e8352909552978820965187549087166001600160a01b03199182161788559451878501805491909716951694909417909455516002850155915160038401555160049092019190915560068054919290916111c490849061245a565b9091555050604051632142170760e11b81526001600160a01b038716906342842e0e906111f990339030908990600401612297565b600060405180830381600087803b15801561121357600080fd5b505af1158015611227573d6000803e3d6000fd5b5050604080513381526001600160a01b03808b16602083015291810188905290881660608201526080810185905260a0810186905260c081018490527fdfaddcdda82f17e90027b70129529e2483191e5ab9c502045ab8d6905228b12b925060e00190506108eb565b611298611e5b565b6007805460ff19811660ff90911615179055565b60075460ff16156112cf5760405162461bcd60e51b81526004016104f7906123ba565b6001600160a01b038083166000908152600160208181526040808420868552825292839020835160e081018552815486168186019081529382015486166060808301919091526002830154608080840191909152600384015460a0840152600484015460c084015294825285519485018652600583015487168552600683015485850152600783015495850195909552600890910154938301939093528201819052519091166113915760405162461bcd60e51b81526004016104f7906123e1565b602080820151908101516040909101516113ab90436124b3565b11156113e45760405162461bcd60e51b81526020600482015260086024820152672a34b6b2b7baba1760c11b60448201526064016104f7565b6020810151516001600160a01b031633146114365760405162461bcd60e51b81526020600482015260126024820152712cb7ba9030b932903737ba103932b73a32b960711b60448201526064016104f7565b6000620f42406003548360200151606001516114529190612494565b61145c9190612472565b905060008183602001516060015161147491906124b3565b6001600160a01b03861660008181526001602081815260408084208a855290915280832080546001600160a01b03199081168255928101805484169055600281018490556003810184905560048082018590556005820180549094169093556006810184905560078101849055600801929092558651519151632142170760e11b815293945091926342842e0e9261151292339290918a9101612297565b600060405180830381600087803b15801561152c57600080fd5b505af1158015611540573d6000803e3d6000fd5b50508451602081015160609091015160405163a9059cbb60e01b81526001600160a01b03909216935063a9059cbb925061157f913391906004016122bb565b602060405180830381600087803b15801561159957600080fd5b505af11580156115ad573d6000803e3d6000fd5b505050506040513d601f19601f820116820180604052508101906115d19190612221565b5082516020810151905160405163a9059cbb60e01b81526001600160a01b039092169163a9059cbb916116089185906004016122bb565b602060405180830381600087803b15801561162257600080fd5b505af1158015611636573d6000803e3d6000fd5b505050506040513d601f19601f8201168201806040525081019061165a9190612221565b5082516020015160025460405163a9059cbb60e01b81526001600160a01b039283169263a9059cbb926116949291169086906004016122bb565b602060405180830381600087803b1580156116ae57600080fd5b505af11580156116c2573d6000803e3d6000fd5b505050506040513d601f19601f820116820180604052508101906116e69190612221565b507f64428878de74f4cd48acc949dc0f8144191deec7d9df57891114da7c711c699233868660405161171a93929190612297565b60405180910390a15050505050565b60075460ff161561174c5760405162461bcd60e51b81526004016104f7906123ba565b6001600160a01b038083166000908152600160208181526040808420868552825292839020835160e081018552815486168186019081529382015486166060808301919091526002830154608080840191909152600384015460a0840152600484015460c0840152948252855194850186526005830154871685526006830154858501526007830154958501959095526008909101549383019390935282018190525190911661180e5760405162461bcd60e51b81526004016104f7906123e1565b6020808201519081015160409091015161182890436124b3565b1161186b5760405162461bcd60e51b815260206004820152601360248201527229ba34b636103932b73a34b733903a34b6b29760691b60448201526064016104f7565b8051516001600160a01b031633146118ba5760405162461bcd60e51b81526020600482015260126024820152712cb7ba9030b932903737ba103437b63232b960711b60448201526064016104f7565b6000620f42406003548360200151606001516118d69190612494565b6118e09190612472565b9050600081836020015160600151846000015160600151611901919061245a565b61190b91906124b3565b6001600160a01b0380871660009081526001602081815260408084208a8552825280842080546001600160a01b031990811682559381018054851690556002810185905560038101859055600480820186905560058201805490951690945560068101859055600781018590556008019390935587510151915163a9059cbb60e01b815293945091169163a9059cbb916119a99133918691016122bb565b602060405180830381600087803b1580156119c357600080fd5b505af11580156119d7573d6000803e3d6000fd5b505050506040513d601f19601f820116820180604052508101906119fb9190612221565b5082516020015160025460405163a9059cbb60e01b81526001600160a01b039283169263a9059cbb92611a359291169086906004016122bb565b602060405180830381600087803b158015611a4f57600080fd5b505af1158015611a63573d6000803e3d6000fd5b505050506040513d601f19601f82011682018060405250810190611a879190612221565b507faf524034569158e35208d5c3858b33596316afc2fc2230e88e8d61543044a92733868660405161171a93929190612297565b6001600160a01b03828116600090815260016020908152604080832085845290915290205483918391163314611b285760405162461bcd60e51b81526020600482015260126024820152714f6e6c79206c69737465722063616e20646f60701b60448201526064016104f7565b60075460ff1615611b4b5760405162461bcd60e51b81526004016104f7906123ba565b6001600160a01b038416600090815260016020908152604080832086845290915290206007015415611b8f5760405162461bcd60e51b81526004016104f790612362565b6001600160a01b038416600081815260016020818152604080842088855290915280832080546001600160a01b03199081168255928101805490931690925560028201839055600382018390556004918201929092559051632142170760e11b81526342842e0e91611c079130913391899101612297565b600060405180830381600087803b158015611c2157600080fd5b505af1158015611c35573d6000803e3d6000fd5b505050507f61762e9320527b6ab31714900127c28e61557fa7f549d71b7ab18a7b65f7ba778484604051611c6a9291906122bb565b60405180910390a150505050565b611c80611e5b565b6001600160a01b038116611ce55760405162461bcd60e51b815260206004820152602660248201527f4f776e61626c653a206e6577206f776e657220697320746865207a65726f206160448201526564647265737360d01b60648201526084016104f7565b611cee81611eb5565b50565b611cf9611e5b565b6001600160a01b038216600090815260016020908152604080832084845290915290206007015415611d3d5760405162461bcd60e51b81526004016104f790612362565b6001600160a01b03808316600081815260016020908152604080832086845290915290819020549051632142170760e11b815291926342842e0e92611d8a92309216908690600401612297565b600060405180830381600087803b158015611da457600080fd5b505af1158015611db8573d6000803e3d6000fd5b5050506001600160a01b038316600090815260016020818152604080842086855290915280832080546001600160a01b0319908116825592810180549093169092556002820183905560038201839055600490910191909155517f61762e9320527b6ab31714900127c28e61557fa7f549d71b7ab18a7b65f7ba779150611e4290849084906122bb565b60405180910390a15050565b611e56611e5b565b600555565b6000546001600160a01b03163314610fc25760405162461bcd60e51b815260206004820181905260248201527f4f776e61626c653a2063616c6c6572206973206e6f7420746865206f776e657260448201526064016104f7565b600080546001600160a01b038381166001600160a01b0319831681178455604051919092169283917f8be0079c531659141344cd1fd0a4f28419497f9722a3daafe3b4186f6b6457e09190a35050565b600082601f830112611f1657600080fd5b81356020611f2b611f2683612436565b612405565b80838252828201915082860187848660051b8901011115611f4b57600080fd5b60005b85811015611f6a57813584529284019290840190600101611f4e565b5090979650505050505050565b600060208284031215611f8957600080fd5b8135611f948161253d565b9392505050565b600060208284031215611fad57600080fd5b8151611f948161253d565b60008060008060808587031215611fce57600080fd5b8435611fd98161253d565b9350602085810135611fea8161253d565b935060408601359250606086013567ffffffffffffffff8082111561200e57600080fd5b818801915088601f83011261202257600080fd5b81358181111561203457612034612527565b612046601f8201601f19168501612405565b9150808252898482850101111561205c57600080fd5b808484018584013760008482840101525080935050505092959194509250565b60008060008060008060c0878903121561209557600080fd5b86356120a08161253d565b955060208701356120b08161253d565b95989597505050506040840135936060810135936080820135935060a0909101359150565b600080604083850312156120e857600080fd5b82356120f38161253d565b946020939093013593505050565b6000806000806080858703121561211757600080fd5b84356121228161253d565b93506020858101359350604086013567ffffffffffffffff8082111561214757600080fd5b818801915088601f83011261215b57600080fd5b8135612169611f2682612436565b8082825285820191508585018c878560051b880101111561218957600080fd5b600095505b838610156121b9578035600381106121a557600080fd5b83526001959095019491860191860161218e565b509650505060608801359250808311156121d257600080fd5b50506121e087828801611f05565b91505092959194509250565b60008060006060848603121561220157600080fd5b833561220c8161253d565b95602085013595506040909401359392505050565b60006020828403121561223357600080fd5b81518015158114611f9457600080fd5b60006020828403121561225557600080fd5b5035919050565b600081518084526020808501945080840160005b8381101561228c57815187529582019590820190600101612270565b509495945050505050565b6001600160a01b039384168152919092166020820152604081019190915260600190565b6001600160a01b03929092168252602082015260400190565b6001600160a01b0385168152602080820185905260806040830181905284519083018190526000918581019160a085019084805b828110156123405785516003811061232e57634e487b7160e01b83526021600452602483fd5b84529484019492840192600101612308565b5050508481036060860152612355818761225c565b9998505050505050505050565b602080825260149082015273616c72656164792072656e746564206974656d2160601b604082015260600190565b60208082526010908201526f73746f7020666f72207570677261646560801b604082015260600190565b6020808252600d908201526c1cde5cdd195b481c185d5cd959609a1b604082015260600190565b6020808252600a9082015269139bdd081c995b9d195960b21b604082015260600190565b604051601f8201601f1916810167ffffffffffffffff8111828210171561242e5761242e612527565b604052919050565b600067ffffffffffffffff82111561245057612450612527565b5060051b60200190565b6000821982111561246d5761246d6124e5565b500190565b60008261248f57634e487b7160e01b600052601260045260246000fd5b500490565b60008160001904831182151516156124ae576124ae6124e5565b500290565b6000828210156124c5576124c56124e5565b500390565b60006000198214156124de576124de6124e5565b5060010190565b634e487b7160e01b600052601160045260246000fd5b634e487b7160e01b600052602160045260246000fd5b634e487b7160e01b600052603260045260246000fd5b634e487b7160e01b600052604160045260246000fd5b6001600160a01b0381168114611cee57600080fdfea26469706673582212202f3dd1f0e7256ba344a87d8b28717b15acded6c5f3d4fc5512fcf9652e604d8764736f6c63430008050033",
  "linkReferences": {},
  "deployedLinkReferences": {}
}