{
  "_format": "hh-sol-artifact-1",
  "contractName": "RentERC721",
  "sourceName": "contracts/RentERC721.sol",
  "abi": [
    {
      "anonymous": false,
      "inputs": [
        {
          "indexed": false,
          "internalType": "address",
          "name": "previousAdmin",
          "type": "address"
        },
        {
          "indexed": false,
          "internalType": "address",
          "name": "newAdmin",
          "type": "address"
        }
      ],
      "name": "AdminChanged",
      "type": "event"
    },
    {
      "anonymous": false,
      "inputs": [
        {
          "indexed": true,
          "internalType": "address",
          "name": "beacon",
          "type": "address"
        }
      ],
      "name": "BeaconUpgraded",
      "type": "event"
    },
    {
      "anonymous": false,
      "inputs": [
        {
          "indexed": false,
          "internalType": "address",
          "name": "from_address",
          "type": "address"
        },
        {
          "indexed": false,
          "internalType": "address",
          "name": "collection_address",
          "type": "address"
        },
        {
          "indexed": false,
          "internalType": "uint256",
          "name": "token_id",
          "type": "uint256"
        },
        {
          "indexed": false,
          "internalType": "uint256",
          "name": "collateral_amount",
          "type": "uint256"
        },
        {
          "indexed": false,
          "internalType": "uint256",
          "name": "fee_amount",
          "type": "uint256"
        }
      ],
      "name": "Collateralwithdraw",
      "type": "event"
    },
    {
      "anonymous": false,
      "inputs": [
        {
          "indexed": false,
          "internalType": "uint8",
          "name": "version",
          "type": "uint8"
        }
      ],
      "name": "Initialized",
      "type": "event"
    },
    {
      "anonymous": false,
      "inputs": [
        {
          "indexed": false,
          "internalType": "address",
          "name": "from_address",
          "type": "address"
        },
        {
          "indexed": false,
          "internalType": "address",
          "name": "collection_address",
          "type": "address"
        },
        {
          "indexed": false,
          "internalType": "uint256",
          "name": "token_id",
          "type": "uint256"
        },
        {
          "indexed": false,
          "internalType": "uint256",
          "name": "collateral_amount",
          "type": "uint256"
        },
        {
          "indexed": false,
          "internalType": "uint256",
          "name": "fee_amount",
          "type": "uint256"
        }
      ],
      "name": "NFTkicked",
      "type": "event"
    },
    {
      "anonymous": false,
      "inputs": [
        {
          "indexed": false,
          "internalType": "address",
          "name": "from_address",
          "type": "address"
        },
        {
          "indexed": false,
          "internalType": "address",
          "name": "collection_address",
          "type": "address"
        },
        {
          "indexed": false,
          "internalType": "uint256",
          "name": "token_id",
          "type": "uint256"
        }
      ],
      "name": "NFTlistcancel",
      "type": "event"
    },
    {
      "anonymous": false,
      "inputs": [
        {
          "indexed": false,
          "internalType": "address",
          "name": "from_address",
          "type": "address"
        },
        {
          "indexed": false,
          "internalType": "address",
          "name": "collection_address",
          "type": "address"
        },
        {
          "indexed": false,
          "internalType": "uint256",
          "name": "token_id",
          "type": "uint256"
        },
        {
          "indexed": false,
          "internalType": "address",
          "name": "collateral_token",
          "type": "address"
        },
        {
          "indexed": false,
          "internalType": "uint256",
          "name": "collateral_amount",
          "type": "uint256"
        },
        {
          "indexed": false,
          "internalType": "uint256",
          "name": "max_rent_duration",
          "type": "uint256"
        },
        {
          "indexed": false,
          "internalType": "uint256",
          "name": "rent_fee_per_block",
          "type": "uint256"
        }
      ],
      "name": "NFTlisted",
      "type": "event"
    },
    {
      "anonymous": false,
      "inputs": [
        {
          "indexed": false,
          "internalType": "address",
          "name": "from_address",
          "type": "address"
        },
        {
          "indexed": false,
          "internalType": "address",
          "name": "collection_address",
          "type": "address"
        },
        {
          "indexed": false,
          "internalType": "uint256",
          "name": "token_id",
          "type": "uint256"
        },
        {
          "indexed": false,
          "internalType": "enum RentERC721.PARAMETER",
          "name": "parameter",
          "type": "uint8"
        },
        {
          "indexed": false,
          "internalType": "uint256",
          "name": "input",
          "type": "uint256"
        }
      ],
      "name": "NFTlistmodified",
      "type": "event"
    },
    {
      "anonymous": false,
      "inputs": [
        {
          "indexed": false,
          "internalType": "address",
          "name": "from_address",
          "type": "address"
        },
        {
          "indexed": false,
          "internalType": "address",
          "name": "collection_address",
          "type": "address"
        },
        {
          "indexed": false,
          "internalType": "uint256",
          "name": "token_id",
          "type": "uint256"
        },
        {
          "indexed": false,
          "internalType": "uint256",
          "name": "rent_block",
          "type": "uint256"
        },
        {
          "indexed": false,
          "internalType": "uint256",
          "name": "rent_duration",
          "type": "uint256"
        },
        {
          "indexed": false,
          "internalType": "uint256",
          "name": "collateral_amount",
          "type": "uint256"
        },
        {
          "indexed": false,
          "internalType": "uint256",
          "name": "rent_fee",
          "type": "uint256"
        }
      ],
      "name": "NFTrented",
      "type": "event"
    },
    {
      "anonymous": false,
      "inputs": [
        {
          "indexed": false,
          "internalType": "address",
          "name": "from_address",
          "type": "address"
        },
        {
          "indexed": false,
          "internalType": "address",
          "name": "collection_address",
          "type": "address"
        },
        {
          "indexed": false,
          "internalType": "uint256",
          "name": "token_id",
          "type": "uint256"
        },
        {
          "indexed": false,
          "internalType": "uint256",
          "name": "collateral_amount",
          "type": "uint256"
        },
        {
          "indexed": false,
          "internalType": "uint256",
          "name": "fee_amount",
          "type": "uint256"
        }
      ],
      "name": "NFTreturned",
      "type": "event"
    },
    {
      "anonymous": false,
      "inputs": [
        {
          "indexed": true,
          "internalType": "address",
          "name": "previousOwner",
          "type": "address"
        },
        {
          "indexed": true,
          "internalType": "address",
          "name": "newOwner",
          "type": "address"
        }
      ],
      "name": "OwnershipTransferred",
      "type": "event"
    },
    {
      "anonymous": false,
      "inputs": [
        {
          "indexed": true,
          "internalType": "address",
          "name": "implementation",
          "type": "address"
        }
      ],
      "name": "Upgraded",
      "type": "event"
    },
    {
      "inputs": [
        {
          "internalType": "address",
          "name": "collection_address",
          "type": "address"
        },
        {
          "internalType": "uint256",
          "name": "token_id",
          "type": "uint256"
        },
        {
          "internalType": "address",
          "name": "_collateral_token",
          "type": "address"
        },
        {
          "internalType": "uint256",
          "name": "_maxrent_duration",
          "type": "uint256"
        },
        {
          "internalType": "uint256",
          "name": "_collateral_amount",
          "type": "uint256"
        },
        {
          "internalType": "uint256",
          "name": "_rent_fee_per_block",
          "type": "uint256"
        }
      ],
      "name": "NFTlist",
      "outputs": [],
      "stateMutability": "nonpayable",
      "type": "function"
    },
    {
      "inputs": [
        {
          "internalType": "address",
          "name": "collection_address",
          "type": "address"
        },
        {
          "internalType": "uint256",
          "name": "token_id",
          "type": "uint256"
        }
      ],
      "name": "cancelList",
      "outputs": [],
      "stateMutability": "nonpayable",
      "type": "function"
    },
    {
      "inputs": [],
      "name": "execution_delay",
      "outputs": [
        {
          "internalType": "uint256",
          "name": "",
          "type": "uint256"
        }
      ],
      "stateMutability": "view",
      "type": "function"
    },
    {
      "inputs": [],
      "name": "fee_collector",
      "outputs": [
        {
          "internalType": "address",
          "name": "",
          "type": "address"
        }
      ],
      "stateMutability": "view",
      "type": "function"
    },
    {
      "inputs": [],
      "name": "fee_denominator",
      "outputs": [
        {
          "internalType": "uint256",
          "name": "",
          "type": "uint256"
        }
      ],
      "stateMutability": "view",
      "type": "function"
    },
    {
      "inputs": [
        {
          "internalType": "address",
          "name": "_operator",
          "type": "address"
        }
      ],
      "name": "initialize",
      "outputs": [],
      "stateMutability": "nonpayable",
      "type": "function"
    },
    {
      "inputs": [
        {
          "internalType": "address",
          "name": "collection_address",
          "type": "address"
        },
        {
          "internalType": "uint256",
          "name": "token_id",
          "type": "uint256"
        }
      ],
      "name": "kick",
      "outputs": [],
      "stateMutability": "nonpayable",
      "type": "function"
    },
    {
      "inputs": [],
      "name": "kick_incentive",
      "outputs": [
        {
          "internalType": "uint256",
          "name": "",
          "type": "uint256"
        }
      ],
      "stateMutability": "view",
      "type": "function"
    },
    {
      "inputs": [
        {
          "internalType": "address",
          "name": "collection_address",
          "type": "address"
        },
        {
          "internalType": "uint256",
          "name": "token_id",
          "type": "uint256"
        },
        {
          "internalType": "enum RentERC721.PARAMETER",
          "name": "_parameter",
          "type": "uint8"
        },
        {
          "internalType": "uint256",
          "name": "_input",
          "type": "uint256"
        }
      ],
      "name": "modifyList",
      "outputs": [],
      "stateMutability": "nonpayable",
      "type": "function"
    },
    {
      "inputs": [],
      "name": "operator",
      "outputs": [
        {
          "internalType": "address",
          "name": "",
          "type": "address"
        }
      ],
      "stateMutability": "view",
      "type": "function"
    },
    {
      "inputs": [],
      "name": "owner",
      "outputs": [
        {
          "internalType": "address",
          "name": "",
          "type": "address"
        }
      ],
      "stateMutability": "view",
      "type": "function"
    },
    {
      "inputs": [],
      "name": "paused",
      "outputs": [
        {
          "internalType": "bool",
          "name": "",
          "type": "bool"
        }
      ],
      "stateMutability": "view",
      "type": "function"
    },
    {
      "inputs": [],
      "name": "platform_fee",
      "outputs": [
        {
          "internalType": "uint256",
          "name": "",
          "type": "uint256"
        }
      ],
      "stateMutability": "view",
      "type": "function"
    },
    {
      "inputs": [],
      "name": "proxiableUUID",
      "outputs": [
        {
          "internalType": "bytes32",
          "name": "",
          "type": "bytes32"
        }
      ],
      "stateMutability": "view",
      "type": "function"
    },
    {
      "inputs": [],
      "name": "renounceOwnership",
      "outputs": [],
      "stateMutability": "nonpayable",
      "type": "function"
    },
    {
      "inputs": [
        {
          "internalType": "address",
          "name": "collection_address",
          "type": "address"
        },
        {
          "internalType": "uint256",
          "name": "token_id",
          "type": "uint256"
        },
        {
          "internalType": "uint256",
          "name": "_rent_duration",
          "type": "uint256"
        }
      ],
      "name": "rent",
      "outputs": [],
      "stateMutability": "nonpayable",
      "type": "function"
    },
    {
      "inputs": [
        {
          "internalType": "address",
          "name": "",
          "type": "address"
        },
        {
          "internalType": "uint256",
          "name": "",
          "type": "uint256"
        }
      ],
      "name": "rentinfo",
      "outputs": [
        {
          "internalType": "address",
          "name": "lender_address",
          "type": "address"
        },
        {
          "internalType": "address",
          "name": "collateral_token",
          "type": "address"
        },
        {
          "internalType": "uint256",
          "name": "maxrent_duration",
          "type": "uint256"
        },
        {
          "internalType": "uint256",
          "name": "collateral_amount",
          "type": "uint256"
        },
        {
          "internalType": "uint256",
          "name": "rent_fee_per_block",
          "type": "uint256"
        },
        {
          "internalType": "address",
          "name": "renter_address",
          "type": "address"
        },
        {
          "internalType": "uint256",
          "name": "rent_duration",
          "type": "uint256"
        },
        {
          "internalType": "uint256",
          "name": "rent_block",
          "type": "uint256"
        }
      ],
      "stateMutability": "view",
      "type": "function"
    },
    {
      "inputs": [
        {
          "internalType": "address",
          "name": "collection_address",
          "type": "address"
        },
        {
          "internalType": "uint256",
          "name": "token_id",
          "type": "uint256"
        }
      ],
      "name": "returnNFT",
      "outputs": [],
      "stateMutability": "nonpayable",
      "type": "function"
    },
    {
      "inputs": [
        {
          "internalType": "uint256",
          "name": "_execution_delay",
          "type": "uint256"
        }
      ],
      "name": "setExecutiondelay",
      "outputs": [],
      "stateMutability": "nonpayable",
      "type": "function"
    },
    {
      "inputs": [
        {
          "internalType": "address",
          "name": "_fee_collector",
          "type": "address"
        }
      ],
      "name": "setFeecollector",
      "outputs": [],
      "stateMutability": "nonpayable",
      "type": "function"
    },
    {
      "inputs": [
        {
          "internalType": "uint256",
          "name": "_kick_incentive",
          "type": "uint256"
        }
      ],
      "name": "setKickincentive",
      "outputs": [],
      "stateMutability": "nonpayable",
      "type": "function"
    },
    {
      "inputs": [
        {
          "internalType": "address",
          "name": "_fee_collector",
          "type": "address"
        }
      ],
      "name": "setOperator",
      "outputs": [],
      "stateMutability": "nonpayable",
      "type": "function"
    },
    {
      "inputs": [
        {
          "internalType": "bool",
          "name": "_pause",
          "type": "bool"
        }
      ],
      "name": "setPaused",
      "outputs": [],
      "stateMutability": "nonpayable",
      "type": "function"
    },
    {
      "inputs": [
        {
          "internalType": "uint256",
          "name": "_platform_fee",
          "type": "uint256"
        }
      ],
      "name": "setPlatformfee",
      "outputs": [],
      "stateMutability": "nonpayable",
      "type": "function"
    },
    {
      "inputs": [
        {
          "internalType": "address",
          "name": "newOwner",
          "type": "address"
        }
      ],
      "name": "transferOwnership",
      "outputs": [],
      "stateMutability": "nonpayable",
      "type": "function"
    },
    {
      "inputs": [
        {
          "internalType": "address",
          "name": "newImplementation",
          "type": "address"
        }
      ],
      "name": "upgradeTo",
      "outputs": [],
      "stateMutability": "nonpayable",
      "type": "function"
    },
    {
      "inputs": [
        {
          "internalType": "address",
          "name": "newImplementation",
          "type": "address"
        },
        {
          "internalType": "bytes",
          "name": "data",
          "type": "bytes"
        }
      ],
      "name": "upgradeToAndCall",
      "outputs": [],
      "stateMutability": "payable",
      "type": "function"
    },
    {
      "inputs": [],
      "name": "viewExcutiondelay",
      "outputs": [
        {
          "internalType": "uint256",
          "name": "",
          "type": "uint256"
        }
      ],
      "stateMutability": "view",
      "type": "function"
    },
    {
      "inputs": [],
      "name": "viewKickincentive",
      "outputs": [
        {
          "internalType": "uint256",
          "name": "",
          "type": "uint256"
        }
      ],
      "stateMutability": "view",
      "type": "function"
    },
    {
      "inputs": [],
      "name": "viewPlatformfee",
      "outputs": [
        {
          "internalType": "uint256",
          "name": "",
          "type": "uint256"
        }
      ],
      "stateMutability": "view",
      "type": "function"
    },
    {
      "inputs": [
        {
          "internalType": "address",
          "name": "collection_address",
          "type": "address"
        },
        {
          "internalType": "uint256",
          "name": "token_id",
          "type": "uint256"
        }
      ],
      "name": "viewRemainblock",
      "outputs": [
        {
          "internalType": "uint256",
          "name": "",
          "type": "uint256"
        }
      ],
      "stateMutability": "view",
      "type": "function"
    },
    {
      "inputs": [
        {
          "internalType": "address",
          "name": "collection_address",
          "type": "address"
        },
        {
          "internalType": "uint256",
          "name": "token_id",
          "type": "uint256"
        }
      ],
      "name": "viewRentinfo",
      "outputs": [
        {
          "components": [
            {
              "internalType": "address",
              "name": "lender_address",
              "type": "address"
            },
            {
              "internalType": "address",
              "name": "collateral_token",
              "type": "address"
            },
            {
              "internalType": "uint256",
              "name": "maxrent_duration",
              "type": "uint256"
            },
            {
              "internalType": "uint256",
              "name": "collateral_amount",
              "type": "uint256"
            },
            {
              "internalType": "uint256",
              "name": "rent_fee_per_block",
              "type": "uint256"
            },
            {
              "internalType": "address",
              "name": "renter_address",
              "type": "address"
            },
            {
              "internalType": "uint256",
              "name": "rent_duration",
              "type": "uint256"
            },
            {
              "internalType": "uint256",
              "name": "rent_block",
              "type": "uint256"
            }
          ],
          "internalType": "struct RentERC721.Rentinfo",
          "name": "",
          "type": "tuple"
        }
      ],
      "stateMutability": "view",
      "type": "function"
    },
    {
      "inputs": [
        {
          "internalType": "address",
          "name": "collection_address",
          "type": "address"
        },
        {
          "internalType": "uint256",
          "name": "token_id",
          "type": "uint256"
        }
      ],
      "name": "withdrawCollateral",
      "outputs": [],
      "stateMutability": "nonpayable",
      "type": "function"
    }
  ],
  "bytecode": "0x60a06040523060805234801561001457600080fd5b50608051612e5b61004c600039600081816113ee0152818161142e0152818161188b015281816118cb015261195e0152612e5b6000f3fe6080604052600436106101ee5760003560e01c8063570ca7351161010d578063c4d66de8116100a0578063dc9d75b01161006f578063dc9d75b014610643578063ea54396e14610659578063ee3b99a81461066f578063f2fde38b1461068f578063f5e8fa23146106af57600080fd5b8063c4d66de8146105cd578063ccb568ec146105ed578063cfb551a41461060d578063d1698aa91461062357600080fd5b8063a0a16084116100dc578063a0a1608414610583578063b3ab15fb1461039e578063b409b6b614610598578063bd650105146105ad57600080fd5b8063570ca735146104ee5780635c975abb14610526578063715018a6146105505780638da5cb5b1461056557600080fd5b8063350c35e9116101855780634dc32a18116101545780634dc32a18146104865780634f1ef286146104a657806352d1902d146104b957806353a1e27b146104ce57600080fd5b8063350c35e91461035e5780633659cfe61461037e578063386e77f11461039e578063455fdfef146103be57600080fd5b80631c19d41d116101c15780631c19d41d1461027557806323407f8a14610299578063256e94eb146102b957806329e6f5031461034857600080fd5b80630203d8fb146101f35780630e597adb1461021557806316c38b3c146102355780631af71a8e14610255575b600080fd5b3480156101ff57600080fd5b5061021361020e36600461281c565b6106cf565b005b34801561022157600080fd5b50610213610230366004612848565b610abe565b34801561024157600080fd5b506102136102503660046128a2565b610d08565b34801561026157600080fd5b5061021361027036600461281c565b610d23565b34801561028157600080fd5b5060cd545b6040519081526020015b60405180910390f35b3480156102a557600080fd5b506102866102b436600461281c565b610ec3565b3480156102c557600080fd5b506102d96102d436600461281c565b610f74565b604051610290919060006101008201905060018060a01b038084511683528060208501511660208401526040840151604084015260608401516060840152608084015160808401528060a08501511660a08401525060c083015160c083015260e083015160e083015292915050565b34801561035457600080fd5b5061028660cd5481565b34801561036a57600080fd5b5061021361037936600461281c565b61105e565b34801561038a57600080fd5b506102136103993660046128bf565b6113e3565b3480156103aa57600080fd5b506102136103b93660046128bf565b6114c3565b3480156103ca57600080fd5b506104366103d936600461281c565b60d0602090815260009283526040808420909152908252902080546001820154600283015460038401546004850154600586015460068701546007909701546001600160a01b039687169795871696949593949293919092169188565b604080516001600160a01b03998a16815297891660208901528701959095526060860193909352608085019190915290931660a083015260c082019290925260e081019190915261010001610290565b34801561049257600080fd5b506102136104a13660046128dc565b6114ed565b6102136104b4366004612927565b611880565b3480156104c557600080fd5b50610286611951565b3480156104da57600080fd5b506102136104e93660046129eb565b611a04565b3480156104fa57600080fd5b5060c95461050e906001600160a01b031681565b6040516001600160a01b039091168152602001610290565b34801561053257600080fd5b5060cf546105409060ff1681565b6040519015158152602001610290565b34801561055c57600080fd5b50610213611cf0565b34801561057157600080fd5b506097546001600160a01b031661050e565b34801561058f57600080fd5b5060cc54610286565b3480156105a457600080fd5b5060cb54610286565b3480156105b957600080fd5b506102136105c8366004612a47565b611d04565b3480156105d957600080fd5b506102136105e83660046128bf565b611d11565b3480156105f957600080fd5b5061021361060836600461281c565b611e61565b34801561061957600080fd5b5061028660cb5481565b34801561062f57600080fd5b5061021361063e366004612a47565b6122af565b34801561064f57600080fd5b5061028660ce5481565b34801561066557600080fd5b5061028660cc5481565b34801561067b57600080fd5b5061021361068a366004612a47565b6122bc565b34801561069b57600080fd5b506102136106aa3660046128bf565b6122c9565b3480156106bb57600080fd5b5060ca5461050e906001600160a01b031681565b60cf5460ff16156106fb5760405162461bcd60e51b81526004016106f290612a60565b60405180910390fd5b6001600160a01b03808316600090815260d0602090815260408083208584528252918290208251610100810184528154851680825260018301548616938201939093526002820154938101939093526003810154606084015260048101546080840152600581015490931660a0830152600683015460c083015260079092015460e0820152901580159061079b575060a08101516001600160a01b031615155b6107b75760405162461bcd60e51b81526004016106f290612a87565b60cd548160c001516107c99190612ad4565b60e08201516107d89043612aec565b1161081b5760405162461bcd60e51b81526020600482015260136024820152722cb7ba9031b0b713ba1035b4b1b5903737bb9760691b60448201526064016106f2565b60008160c0015182608001516108319190612b03565b9050600060ce5460cb54836108469190612b03565b6108509190612b22565b9050600060ce5460cc54846108659190612b03565b61086f9190612b22565b9050600081838587606001516108859190612ad4565b61088f9190612aec565b6108999190612aec565b6001600160a01b03888116600090815260d0602090815260408083208b8452825280832080546001600160a01b0319908116825560018201805482169055600282018590556003820185905560048083018690556005830180549092169091556006820185905560079091019390935590890151905163a9059cbb60e01b815233928101929092526024820186905292935091169063a9059cbb906044016020604051808303816000875af1158015610956573d6000803e3d6000fd5b505050506040513d601f19601f8201168201806040525081019061097a9190612b44565b506020850151855160405163a9059cbb60e01b81526001600160a01b0391821660048201526024810184905291169063a9059cbb906044016020604051808303816000875af11580156109d1573d6000803e3d6000fd5b505050506040513d601f19601f820116820180604052508101906109f59190612b44565b50602085015160ca5460405163a9059cbb60e01b81526001600160a01b0391821660048201526024810186905291169063a9059cbb906044016020604051808303816000875af1158015610a4d573d6000803e3d6000fd5b505050506040513d601f19601f82011682018060405250810190610a719190612b44565b507f7cd3bce4e898c2fdcdc8057ac6c2662bc47ef9674cac80baaceb918421da99a3338888886060015188604051610aad959493929190612b61565b60405180910390a150505050505050565b6001600160a01b03848116600090815260d06020908152604080832087845290915290205485918591163314610b2b5760405162461bcd60e51b81526020600482015260126024820152714f6e6c79206c69737465722063616e20646f60701b60448201526064016106f2565b60cf5460ff1615610b4e5760405162461bcd60e51b81526004016106f290612a60565b6001600160a01b038616600090815260d06020908152604080832088845290915290206007015415610b925760405162461bcd60e51b81526004016106f290612b92565b6000846003811115610ba657610ba6612bc0565b1415610bed576001600160a01b03868116600090815260d060209081526040808320898452909152902060010180546001600160a01b031916918516919091179055610cc1565b6001846003811115610c0157610c01612bc0565b1415610c35576001600160a01b038616600090815260d0602090815260408083208884529091529020600201839055610cc1565b6002846003811115610c4957610c49612bc0565b1415610c7d576001600160a01b038616600090815260d0602090815260408083208884529091529020600301839055610cc1565b6003846003811115610c9157610c91612bc0565b1415610cc1576001600160a01b038616600090815260d06020908152604080832088845290915290206004018390555b7f78d55a825e39a429facd8392fb0cea83b67d8113c5eec52b9c55b8372fbdfd563387878787604051610cf8959493929190612bd6565b60405180910390a1505050505050565b610d1061233f565b60cf805460ff1916911515919091179055565b6001600160a01b03828116600090815260d0602090815260408083208584529091529020548391839116331480610d64575060c9546001600160a01b031633145b610db05760405162461bcd60e51b815260206004820152601e60248201527f4f6e6c79206c6973746572206f72204f70657261746f722063616e20646f000060448201526064016106f2565b60cf5460ff1615610dd35760405162461bcd60e51b81526004016106f290612a60565b6001600160a01b038416600090815260d06020908152604080832086845290915290206007015415610e175760405162461bcd60e51b81526004016106f290612b92565b6001600160a01b038416600090815260d06020908152604080832086845290915280822080546001600160a01b031990811682556001820180548216905560028201849055600382018490556004820184905560058201805490911690556006810183905560070191909155517fbeaf299db09d56c31eb3b01e10bba6d0047a36bf8f8c361a0138e156d6f837b290610eb590339087908790612c26565b60405180910390a150505050565b6001600160a01b038216600090815260d06020908152604080832084845290915281206006810154600790910154610efb9043612aec565b1015610f6a576001600160a01b038316600090815260d060209081526040808320858452909152902060070154610f329043612aec565b6001600160a01b038416600090815260d060209081526040808320868452909152902060060154610f639190612aec565b9050610f6e565b5060005b92915050565b610fd760405180610100016040528060006001600160a01b0316815260200160006001600160a01b0316815260200160008152602001600081526020016000815260200160006001600160a01b0316815260200160008152602001600081525090565b506001600160a01b03918216600090815260d0602090815260408083209383529281529082902082516101008101845281548516815260018201548516928101929092526002810154928201929092526003820154606082015260048201546080820152600582015490921660a0830152600681015460c08301526007015460e082015290565b60cf5460ff16156110815760405162461bcd60e51b81526004016106f290612a60565b6001600160a01b03808316600090815260d0602090815260408083208584528252918290208251610100810184528154851680825260018301548616938201939093526002820154938101939093526003810154606084015260048101546080840152600581015490931660a0830152600683015460c083015260079092015460e08201529015801590611121575060a08101516001600160a01b031615155b61113d5760405162461bcd60e51b81526004016106f290612a87565b60c081015160e08201516111519043612aec565b116111a85760405162461bcd60e51b815260206004820152602160248201527f596f752063616e277420776974686472617720636f6c6c61746572616c206e6f6044820152607760f81b60648201526084016106f2565b80516001600160a01b031633146111f65760405162461bcd60e51b81526020600482015260126024820152712cb7ba9030b932903737ba103437b63232b960711b60448201526064016106f2565b60008160c00151826080015161120c9190612b03565b9050600060ce5460cb54836112219190612b03565b61122b9190612b22565b90506000818385606001516112409190612ad4565b61124a9190612aec565b6001600160a01b03878116600090815260d0602090815260408083208a8452825280832080546001600160a01b0319908116825560018201805482169055600282018590556003820185905560048083018690556005830180549092169091556006820185905560079091019390935590880151905163a9059cbb60e01b815233928101929092526024820184905292935091169063a9059cbb906044016020604051808303816000875af1158015611307573d6000803e3d6000fd5b505050506040513d601f19601f8201168201806040525081019061132b9190612b44565b50602084015160ca5460405163a9059cbb60e01b81526001600160a01b0391821660048201526024810185905291169063a9059cbb906044016020604051808303816000875af1158015611383573d6000803e3d6000fd5b505050506040513d601f19601f820116820180604052508101906113a79190612b44565b507f95841f1e064388080f558d8f16e416cb36b8eba707651ff7d612c0c7f0ef83b7338787876060015187604051610cf8959493929190612b61565b306001600160a01b037f000000000000000000000000000000000000000000000000000000000000000016141561142c5760405162461bcd60e51b81526004016106f290612c4a565b7f00000000000000000000000000000000000000000000000000000000000000006001600160a01b0316611475600080516020612ddf833981519152546001600160a01b031690565b6001600160a01b03161461149b5760405162461bcd60e51b81526004016106f290612c96565b6114a481612399565b604080516000808252602082019092526114c0918391906123a1565b50565b6114cb61233f565b60ca80546001600160a01b0319166001600160a01b0392909216919091179055565b60cf5460ff16156115105760405162461bcd60e51b81526004016106f290612a60565b6001600160a01b03808416600090815260d0602090815260408083208684528252918290208251610100810184528154851680825260018301548616938201939093526002820154938101939093526003810154606084015260048101546080840152600581015490931660a0830152600683015460c083015260079092015460e0820152906115cf5760405162461bcd60e51b815260206004820152600a602482015269139bdd081b1a5cdd195960b21b60448201526064016106f2565b600082116116295760405162461bcd60e51b815260206004820152602160248201527f596f752073686f756c642072656e74206d6f7265207468616e203120626c6f636044820152606b60f81b60648201526084016106f2565b60c08101511561166c5760405162461bcd60e51b815260206004820152600e60248201526d105b1c9958591e481c995b9d195960921b60448201526064016106f2565b80604001518211156116d35760405162461bcd60e51b815260206004820152602a60248201527f596f752063616e27742072656e74206d6f7265207468616e206d61782072656e6044820152693a10323ab930ba34b7b760b11b60648201526084016106f2565b60008282608001516116e59190612b03565b905060008183606001516116f99190612ad4565b6001600160a01b03878116600090815260d0602090815260408083208a84528252918290206005810180546001600160a01b03191633908117909155600682018a9055436007909201919091559087015191516323b872dd60e01b81529394509116916323b872dd916117729130908690600401612c26565b6020604051808303816000875af1158015611791573d6000803e3d6000fd5b505050506040513d601f19601f820116820180604052508101906117b59190612b44565b5082516040516323b872dd60e01b81526001600160a01b038816916323b872dd916117e7919033908a90600401612c26565b600060405180830381600087803b15801561180157600080fd5b505af1158015611815573d6000803e3d6000fd5b505050606080850151604080513381526001600160a01b038b16602082015290810189905243928101929092526080820187905260a082015260c081018490527fc2dfac6c961fdbfc792ae0b39006cae782c8f764d97a45d36a8e1525f18411b4915060e001610cf8565b306001600160a01b037f00000000000000000000000000000000000000000000000000000000000000001614156118c95760405162461bcd60e51b81526004016106f290612c4a565b7f00000000000000000000000000000000000000000000000000000000000000006001600160a01b0316611912600080516020612ddf833981519152546001600160a01b031690565b6001600160a01b0316146119385760405162461bcd60e51b81526004016106f290612c96565b61194182612399565b61194d828260016123a1565b5050565b6000306001600160a01b037f000000000000000000000000000000000000000000000000000000000000000016146119f15760405162461bcd60e51b815260206004820152603860248201527f555550535570677261646561626c653a206d757374206e6f742062652063616c60448201527f6c6564207468726f7567682064656c656761746563616c6c000000000000000060648201526084016106f2565b50600080516020612ddf83398151915290565b60cf5460ff1615611a275760405162461bcd60e51b81526004016106f290612a60565b6040516331a9108f60e11b8152600481018690526001600160a01b03871690636352211e90602401602060405180830381865afa158015611a6c573d6000803e3d6000fd5b505050506040513d601f19601f82011682018060405250810190611a909190612ce2565b6001600160a01b0316336001600160a01b031614611ae85760405162461bcd60e51b81526020600482015260156024820152742cb7ba9030b932903737ba103a34329037bbb732b960591b60448201526064016106f2565b6001600160a01b038616600090815260d06020908152604080832088845290915290206007015415611b2c5760405162461bcd60e51b81526004016106f290612b92565b604051806101000160405280336001600160a01b03168152602001856001600160a01b0316815260200184815260200183815260200182815260200160006001600160a01b0316815260200160008152602001600081525060d06000886001600160a01b03166001600160a01b03168152602001908152602001600020600087815260200190815260200160002060008201518160000160006101000a8154816001600160a01b0302191690836001600160a01b0316021790555060208201518160010160006101000a8154816001600160a01b0302191690836001600160a01b0316021790555060408201518160020155606082015181600301556080820151816004015560a08201518160050160006101000a8154816001600160a01b0302191690836001600160a01b0316021790555060c0820151816006015560e082015181600701559050507f6b4abc88044237897cc26e7e004b5ac79b31539a3392353d297c743bdd62c7b533878787868887604051610cf897969594939291906001600160a01b03978816815295871660208701526040860194909452919094166060840152608083019390935260a082019290925260c081019190915260e00190565b611cf861233f565b611d026000612511565b565b611d0c61233f565b60cd55565b600054610100900460ff1615808015611d315750600054600160ff909116105b80611d4b5750303b158015611d4b575060005460ff166001145b611dae5760405162461bcd60e51b815260206004820152602e60248201527f496e697469616c697a61626c653a20636f6e747261637420697320616c72656160448201526d191e481a5b9a5d1a585b1a5e995960921b60648201526084016106f2565b6000805460ff191660011790558015611dd1576000805461ff0019166101001790555b60c980546001600160a01b0319166001600160a01b0384161790556161a860cb5561271060cc556202a30060cd55620f424060ce5560cf805460ff19169055611e18612563565b801561194d576000805461ff0019169055604051600181527f7f26b83ff96e1f2b6a682f133852f6798a09c465da95921460cefb38474024989060200160405180910390a15050565b60cf5460ff1615611e845760405162461bcd60e51b81526004016106f290612a60565b6001600160a01b03808316600090815260d0602090815260408083208584528252918290208251610100810184528154851680825260018301548616938201939093526002820154938101939093526003810154606084015260048101546080840152600581015490931660a0830152600683015460c083015260079092015460e08201529015801590611f24575060a08101516001600160a01b031615155b611f405760405162461bcd60e51b81526004016106f290612a87565b60c081015160e0820151611f549043612aec565b1115611f8c5760405162461bcd60e51b8152602060048201526007602482015266151a5b595bdd5d60ca1b60448201526064016106f2565b8060a001516001600160a01b0316336001600160a01b031614611fe65760405162461bcd60e51b81526020600482015260126024820152712cb7ba9030b932903737ba103932b73a32b960711b60448201526064016106f2565b60008160c001518260800151611ffc9190612b03565b9050600060ce5460cb54836120119190612b03565b61201b9190612b22565b90506120278183612aec565b6001600160a01b038616600081815260d06020908152604080832089845290915280822080546001600160a01b03199081168255600182018054821690556002820184905560038201849055600480830185905560058301805490921690915560068201849055600790910192909255865190516323b872dd60e01b815293955091926323b872dd926120be9233928a9101612c26565b600060405180830381600087803b1580156120d857600080fd5b505af11580156120ec573d6000803e3d6000fd5b505050506020830151606084015160405163a9059cbb60e01b815233600482015260248101919091526001600160a01b039091169063a9059cbb906044016020604051808303816000875af1158015612149573d6000803e3d6000fd5b505050506040513d601f19601f8201168201806040525081019061216d9190612b44565b506020830151835160405163a9059cbb60e01b81526001600160a01b0391821660048201526024810185905291169063a9059cbb906044016020604051808303816000875af11580156121c4573d6000803e3d6000fd5b505050506040513d601f19601f820116820180604052508101906121e89190612b44565b50602083015160ca5460405163a9059cbb60e01b81526001600160a01b0391821660048201526024810184905291169063a9059cbb906044016020604051808303816000875af1158015612240573d6000803e3d6000fd5b505050506040513d601f19601f820116820180604052508101906122649190612b44565b507f7446a15f05450d6e67beab5733f63bbafdafeb4ef6d19cf2cd1d422ff8b875323386868660600151866040516122a0959493929190612b61565b60405180910390a15050505050565b6122b761233f565b60cc55565b6122c461233f565b60cb55565b6122d161233f565b6001600160a01b0381166123365760405162461bcd60e51b815260206004820152602660248201527f4f776e61626c653a206e6577206f776e657220697320746865207a65726f206160448201526564647265737360d01b60648201526084016106f2565b6114c081612511565b6097546001600160a01b03163314611d025760405162461bcd60e51b815260206004820181905260248201527f4f776e61626c653a2063616c6c6572206973206e6f7420746865206f776e657260448201526064016106f2565b6114c061233f565b7f4910fdfa16fed3260ed0e7147f7cc6da11a60208b5b9406d12a635614ffd91435460ff16156123d9576123d483612592565b505050565b826001600160a01b03166352d1902d6040518163ffffffff1660e01b8152600401602060405180830381865afa925050508015612433575060408051601f3d908101601f1916820190925261243091810190612cff565b60015b6124965760405162461bcd60e51b815260206004820152602e60248201527f45524331393637557067726164653a206e657720696d706c656d656e7461746960448201526d6f6e206973206e6f74205555505360901b60648201526084016106f2565b600080516020612ddf83398151915281146125055760405162461bcd60e51b815260206004820152602960248201527f45524331393637557067726164653a20756e737570706f727465642070726f786044820152681a58589b195555525160ba1b60648201526084016106f2565b506123d483838361262e565b609780546001600160a01b038381166001600160a01b0319831681179093556040519116919082907f8be0079c531659141344cd1fd0a4f28419497f9722a3daafe3b4186f6b6457e090600090a35050565b600054610100900460ff1661258a5760405162461bcd60e51b81526004016106f290612d18565b611d02612659565b6001600160a01b0381163b6125ff5760405162461bcd60e51b815260206004820152602d60248201527f455243313936373a206e657720696d706c656d656e746174696f6e206973206e60448201526c1bdd08184818dbdb9d1c9858dd609a1b60648201526084016106f2565b600080516020612ddf83398151915280546001600160a01b0319166001600160a01b0392909216919091179055565b61263783612689565b6000825111806126445750805b156123d45761265383836126c9565b50505050565b600054610100900460ff166126805760405162461bcd60e51b81526004016106f290612d18565b611d0233612511565b61269281612592565b6040516001600160a01b038216907fbc7cd75a20ee27fd9adebab32041f755214dbc6bffa90cc0225b39da2e5c2d3b90600090a250565b60606001600160a01b0383163b6127315760405162461bcd60e51b815260206004820152602660248201527f416464726573733a2064656c65676174652063616c6c20746f206e6f6e2d636f6044820152651b9d1c9858dd60d21b60648201526084016106f2565b600080846001600160a01b03168460405161274c9190612d8f565b600060405180830381855af49150503d8060008114612787576040519150601f19603f3d011682016040523d82523d6000602084013e61278c565b606091505b50915091506127b48282604051806060016040528060278152602001612dff602791396127bd565b95945050505050565b606083156127cc5750816127d6565b6127d683836127dd565b9392505050565b8151156127ed5781518083602001fd5b8060405162461bcd60e51b81526004016106f29190612dab565b6001600160a01b03811681146114c057600080fd5b6000806040838503121561282f57600080fd5b823561283a81612807565b946020939093013593505050565b6000806000806080858703121561285e57600080fd5b843561286981612807565b93506020850135925060408501356004811061288457600080fd5b9396929550929360600135925050565b80151581146114c057600080fd5b6000602082840312156128b457600080fd5b81356127d681612894565b6000602082840312156128d157600080fd5b81356127d681612807565b6000806000606084860312156128f157600080fd5b83356128fc81612807565b95602085013595506040909401359392505050565b634e487b7160e01b600052604160045260246000fd5b6000806040838503121561293a57600080fd5b823561294581612807565b9150602083013567ffffffffffffffff8082111561296257600080fd5b818501915085601f83011261297657600080fd5b81358181111561298857612988612911565b604051601f8201601f19908116603f011681019083821181831017156129b0576129b0612911565b816040528281528860208487010111156129c957600080fd5b8260208601602083013760006020848301015280955050505050509250929050565b60008060008060008060c08789031215612a0457600080fd5b8635612a0f81612807565b9550602087013594506040870135612a2681612807565b959894975094956060810135955060808101359460a0909101359350915050565b600060208284031215612a5957600080fd5b5035919050565b6020808252600d908201526c1cde5cdd195b481c185d5cd959609a1b604082015260600190565b60208082526018908201527f4e6f74206c6973746564202626204e6f742072656e7465640000000000000000604082015260600190565b634e487b7160e01b600052601160045260246000fd5b60008219821115612ae757612ae7612abe565b500190565b600082821015612afe57612afe612abe565b500390565b6000816000190483118215151615612b1d57612b1d612abe565b500290565b600082612b3f57634e487b7160e01b600052601260045260246000fd5b500490565b600060208284031215612b5657600080fd5b81516127d681612894565b6001600160a01b03958616815293909416602084015260408301919091526060820152608081019190915260a00190565b602080825260149082015273616c72656164792072656e746564206974656d2160601b604082015260600190565b634e487b7160e01b600052602160045260246000fd5b6001600160a01b038681168252851660208201526040810184905260a0810160048410612c1357634e487b7160e01b600052602160045260246000fd5b6060820193909352608001529392505050565b6001600160a01b039384168152919092166020820152604081019190915260600190565b6020808252602c908201527f46756e6374696f6e206d7573742062652063616c6c6564207468726f7567682060408201526b19195b1959d85d1958d85b1b60a21b606082015260800190565b6020808252602c908201527f46756e6374696f6e206d7573742062652063616c6c6564207468726f7567682060408201526b6163746976652070726f787960a01b606082015260800190565b600060208284031215612cf457600080fd5b81516127d681612807565b600060208284031215612d1157600080fd5b5051919050565b6020808252602b908201527f496e697469616c697a61626c653a20636f6e7472616374206973206e6f74206960408201526a6e697469616c697a696e6760a81b606082015260800190565b60005b83811015612d7e578181015183820152602001612d66565b838111156126535750506000910152565b60008251612da1818460208701612d63565b9190910192915050565b6020815260008251806020840152612dca816040850160208701612d63565b601f01601f1916919091016040019291505056fe360894a13ba1a3210667c828492db98dca3e2076cc3735a920a3ca505d382bbc416464726573733a206c6f772d6c6576656c2064656c65676174652063616c6c206661696c6564a26469706673582212203750bb3e42a8d467dfee11108c456fcd8590fe11c39895032517265667f5e7fc64736f6c634300080a0033",
  "linkReferences": {},
  "deployedLinkReferences": {}
}